{
  "_format": "hh-sol-artifact-1",
  "contractName": "TournamentScores",
  "sourceName": "contracts/TournamentScores.sol",
  "abi": [
    {
      "inputs": [],
      "stateMutability": "nonpayable",
      "type": "constructor"
    },
    {
      "anonymous": false,
      "inputs": [
        {
          "indexed": false,
          "internalType": "uint256",
          "name": "tournamentId",
          "type": "uint256"
        },
        {
          "indexed": false,
          "internalType": "bytes32[]",
          "name": "players",
          "type": "bytes32[]"
        },
        {
          "indexed": false,
          "internalType": "bytes32",
          "name": "winner",
          "type": "bytes32"
        },
        {
          "indexed": false,
          "internalType": "uint256",
          "name": "timestamp",
          "type": "uint256"
        }
      ],
      "name": "scoreRecorded",
      "type": "event"
    },
    {
      "inputs": [],
      "name": "getScores",
      "outputs": [
        {
          "components": [
            {
              "internalType": "uint256",
              "name": "tournamentId",
              "type": "uint256"
            },
            {
              "internalType": "bytes32[]",
              "name": "players",
              "type": "bytes32[]"
            },
            {
              "internalType": "bytes32",
              "name": "winner",
              "type": "bytes32"
            },
            {
              "internalType": "uint256",
              "name": "timestamp",
              "type": "uint256"
            }
          ],
          "internalType": "struct TournamentScores.Score[]",
          "name": "",
          "type": "tuple[]"
        }
      ],
      "stateMutability": "view",
      "type": "function"
    },
    {
      "inputs": [],
      "name": "owner",
      "outputs": [
        {
          "internalType": "address",
          "name": "",
          "type": "address"
        }
      ],
      "stateMutability": "view",
      "type": "function"
    },
    {
      "inputs": [
        {
          "internalType": "uint256",
          "name": "_tournamentId",
          "type": "uint256"
        },
        {
          "internalType": "bytes32[]",
          "name": "_players",
          "type": "bytes32[]"
        },
        {
          "internalType": "bytes32",
          "name": "_winner",
          "type": "bytes32"
        }
      ],
      "name": "recordTournament",
      "outputs": [],
      "stateMutability": "nonpayable",
      "type": "function"
    },
    {
      "inputs": [
        {
          "internalType": "uint256",
          "name": "",
          "type": "uint256"
        }
      ],
      "name": "scores",
      "outputs": [
        {
          "internalType": "uint256",
          "name": "tournamentId",
          "type": "uint256"
        },
        {
          "internalType": "bytes32",
          "name": "winner",
          "type": "bytes32"
        },
        {
          "internalType": "uint256",
          "name": "timestamp",
          "type": "uint256"
        }
      ],
      "stateMutability": "view",
      "type": "function"
    }
  ],
  "bytecode": "0x6080604052348015600f57600080fd5b50336000806101000a81548173ffffffffffffffffffffffffffffffffffffffff021916908373ffffffffffffffffffffffffffffffffffffffff160217905550610acc8061005f6000396000f3fe608060405234801561001057600080fd5b506004361061004c5760003560e01c80631ea1380c146100515780632ee691a31461006f578063405c87d9146100a15780638da5cb5b146100bd575b600080fd5b6100596100db565b60405161006691906106a9565b60405180910390f35b61008960048036038101906100849190610701565b6101b0565b6040516100989392919061074c565b60405180910390f35b6100bb60048036038101906100b69190610814565b6101ea565b005b6100c5610415565b6040516100d291906108c9565b60405180910390f35b60606001805480602002602001604051908101604052809291908181526020016000905b828210156101a75783829060005260206000209060040201604051806080016040529081600082015481526020016001820180548060200260200160405190810160405280929190818152602001828054801561017b57602002820191906000526020600020905b815481526020019060010190808311610167575b5050505050815260200160028201548152602001600382015481525050815260200190600101906100ff565b50505050905090565b600181815481106101c057600080fd5b90600052602060002090600402016000915090508060000154908060020154908060030154905083565b828280806020026020016040519081016040528093929190818152602001838360200280828437600081840152601f19601f82011690508083019250505050505050600281511015610271576040517f08c379a000000000000000000000000000000000000000000000000000000000815260040161026890610941565b60405180910390fd5b60008054906101000a900473ffffffffffffffffffffffffffffffffffffffff1673ffffffffffffffffffffffffffffffffffffffff163373ffffffffffffffffffffffffffffffffffffffff16146102ff576040517f08c379a00000000000000000000000000000000000000000000000000000000081526004016102f6906109ad565b60405180910390fd5b60006040518060800160405280878152602001868680806020026020016040519081016040528093929190818152602001838360200280828437600081840152601f19601f82011690508083019250505050505050815260200184815260200142815250905060018190806001815401808255809150506001900390600052602060002090600402016000909190919091506000820151816000015560208201518160010190805190602001906103b7929190610439565b50604082015181600201556060820151816003015550507fd6eb20dc48ce50d5254aedeabfd92897358b46b5e88d9afc5f86d8d0f4e856618686868642604051610405959493929190610a48565b60405180910390a1505050505050565b60008054906101000a900473ffffffffffffffffffffffffffffffffffffffff1681565b828054828255906000526020600020908101928215610475579160200282015b82811115610474578251825591602001919060010190610459565b5b5090506104829190610486565b5090565b5b8082111561049f576000816000905550600101610487565b5090565b600081519050919050565b600082825260208201905092915050565b6000819050602082019050919050565b6000819050919050565b6104e2816104cf565b82525050565b600081519050919050565b600082825260208201905092915050565b6000819050602082019050919050565b6000819050919050565b61052781610514565b82525050565b6000610539838361051e565b60208301905092915050565b6000602082019050919050565b600061055d826104e8565b61056781856104f3565b935061057283610504565b8060005b838110156105a357815161058a888261052d565b975061059583610545565b925050600181019050610576565b5085935050505092915050565b60006080830160008301516105c860008601826104d9565b50602083015184820360208601526105e08282610552565b91505060408301516105f5604086018261051e565b50606083015161060860608601826104d9565b508091505092915050565b600061061f83836105b0565b905092915050565b6000602082019050919050565b600061063f826104a3565b61064981856104ae565b93508360208202850161065b856104bf565b8060005b8581101561069757848403895281516106788582610613565b945061068383610627565b925060208a0199505060018101905061065f565b50829750879550505050505092915050565b600060208201905081810360008301526106c38184610634565b905092915050565b600080fd5b600080fd5b6106de816104cf565b81146106e957600080fd5b50565b6000813590506106fb816106d5565b92915050565b600060208284031215610717576107166106cb565b5b6000610725848285016106ec565b91505092915050565b610737816104cf565b82525050565b61074681610514565b82525050565b6000606082019050610761600083018661072e565b61076e602083018561073d565b61077b604083018461072e565b949350505050565b600080fd5b600080fd5b600080fd5b60008083601f8401126107a8576107a7610783565b5b8235905067ffffffffffffffff8111156107c5576107c4610788565b5b6020830191508360208202830111156107e1576107e061078d565b5b9250929050565b6107f181610514565b81146107fc57600080fd5b50565b60008135905061080e816107e8565b92915050565b6000806000806060858703121561082e5761082d6106cb565b5b600061083c878288016106ec565b945050602085013567ffffffffffffffff81111561085d5761085c6106d0565b5b61086987828801610792565b9350935050604061087c878288016107ff565b91505092959194509250565b600073ffffffffffffffffffffffffffffffffffffffff82169050919050565b60006108b382610888565b9050919050565b6108c3816108a8565b82525050565b60006020820190506108de60008301846108ba565b92915050565b600082825260208201905092915050565b7f4174206c65617374203220706c61796572732061726520726571756972656400600082015250565b600061092b601f836108e4565b9150610936826108f5565b602082019050919050565b6000602082019050818103600083015261095a8161091e565b9050919050565b7f4f6e6c79206f776e65722063616e207265636f726420746f75726e616d656e74600082015250565b60006109976020836108e4565b91506109a282610961565b602082019050919050565b600060208201905081810360008301526109c68161098a565b9050919050565b600082825260208201905092915050565b600080fd5b82818337505050565b60006109f883856109cd565b93507f07ffffffffffffffffffffffffffffffffffffffffffffffffffffffffffffff831115610a2b57610a2a6109de565b5b602083029250610a3c8385846109e3565b82840190509392505050565b6000608082019050610a5d600083018861072e565b8181036020830152610a708186886109ec565b9050610a7f604083018561073d565b610a8c606083018461072e565b969550505050505056fea2646970667358221220ba96090b1b97aa74ec89716cf1a6ed1d2c77371e78e819e8626c72a6cc59aaa164736f6c634300081c0033",
  "linkReferences": {},
  "deployedLinkReferences": {}
}